:100000000C9448000C94C7000C94C7000C94C700D3
:100010000C94C7000C94C7000C94C7000C94C70044
:100020000C94C7000C94C7000C94C7000C94C70034
:100030000C94C7000C94C7000C94C7000C94C70024
:100040000C94C7000C94C7000C94C7000C94C70014
:100050000C94C7000C94C7000C94C7000C94C70004
:100060000C94C7000C94C7000C94C7000C94C700F4
:100070000C94C7000C94C7000C94C7000C94C700E4
:100080000C94C7000C94C7000C94C7000C94C700D4
:1000900011241FBECFEFCDBFDFE3DEBFE0E9F0E00C
:1000A00040E017C0B591A59135912591059107FDC7
:1000B0000CC095918591EF01F92FE82F05900D92D5
:1000C000A217B307D9F7FE0104C01D92A217B30708
:1000D000E1F7E039F40731F70E9491000C94B80081
:0400E000F894FFCFC2
:1000E400CF93DF93EC01AC0120E030E0E0E4F8E0F2
:1000F40009C0948195FFFDCFDA018D91AD01828312
:100104002F5F3F4FDE010D900020E9F71197AC1BE4
:0E011400BD0B2A173B0768F3DF91CF910895CA
:100122000E94A800E0E0F4E080E1828388E0848B12
:10013200C0E0D4E0888584FD05C086E891E40E9491
:0E0142007200F8CF8AE891E40E947200F3CFB9
:10015000E0EAF4E081E0818382E08283E0E4F8E099
:100160008DE695E0808791878681806486830895F7
:10017000EC010E94CC000E94CB00CE010E94CD0079
:06018000CE010E94C9003F
:08018600310D0A00300D0A00E2
:04018E000C940000CD
:040192000E94700057
:020196000895CA
:020198000895C8
:02019A000895C6
:00000001FF
